{
  "_format": "hh-sol-artifact-1",
  "contractName": "DummyContract",
  "sourceName": "contracts/DummyContract.sol",
  "abi": [
    {
      "anonymous": false,
      "inputs": [
        {
          "indexed": false,
          "internalType": "uint256",
          "name": "amount",
          "type": "uint256"
        }
      ],
      "name": "GotCredits",
      "type": "event"
    },
    {
      "inputs": [],
      "name": "contractBalance",
      "outputs": [
        {
          "internalType": "uint256",
          "name": "",
          "type": "uint256"
        }
      ],
      "stateMutability": "view",
      "type": "function"
    },
    {
      "inputs": [],
      "name": "getValue",
      "outputs": [
        {
          "internalType": "uint256",
          "name": "",
          "type": "uint256"
        }
      ],
      "stateMutability": "view",
      "type": "function"
    },
    {
      "inputs": [],
      "name": "owner",
      "outputs": [
        {
          "internalType": "address",
          "name": "",
          "type": "address"
        }
      ],
      "stateMutability": "view",
      "type": "function"
    },
    {
      "inputs": [],
      "name": "paySomeCredits",
      "outputs": [
        {
          "internalType": "bool",
          "name": "",
          "type": "bool"
        }
      ],
      "stateMutability": "payable",
      "type": "function"
    },
    {
      "inputs": [
        {
          "internalType": "uint256",
          "name": "_value",
          "type": "uint256"
        }
      ],
      "name": "setValue",
      "outputs": [],
      "stateMutability": "payable",
      "type": "function"
    },
    {
      "inputs": [],
      "name": "value",
      "outputs": [
        {
          "internalType": "uint256",
          "name": "",
          "type": "uint256"
        }
      ],
      "stateMutability": "view",
      "type": "function"
    },
    {
      "inputs": [
        {
          "internalType": "address payable",
          "name": "_to",
          "type": "address"
        }
      ],
      "name": "withdrawAll",
      "outputs": [],
      "stateMutability": "nonpayable",
      "type": "function"
    }
  ],
  "bytecode": "0x6080604052336000806101000a81548173ffffffffffffffffffffffffffffffffffffffff021916908373ffffffffffffffffffffffffffffffffffffffff1602179055506000600155600060025534801561005a57600080fd5b506104ed8061006a6000396000f3fe6080604052600436106100705760003560e01c80638b7afe2e1161004e5780638b7afe2e146100e75780638da5cb5b14610112578063ba99162e1461013d578063fa09e6301461015b57610070565b806320965255146100755780633fa4f245146100a057806355241077146100cb575b600080fd5b34801561008157600080fd5b5061008a610184565b60405161009791906102de565b60405180910390f35b3480156100ac57600080fd5b506100b561018e565b6040516100c291906102de565b60405180910390f35b6100e560048036038101906100e0919061032a565b610194565b005b3480156100f357600080fd5b506100fc61019e565b60405161010991906102de565b60405180910390f35b34801561011e57600080fd5b506101276101a4565b6040516101349190610398565b60405180910390f35b6101456101c8565b60405161015291906103ce565b60405180910390f35b34801561016757600080fd5b50610182600480360381019061017d9190610427565b610221565b005b6000600254905090565b60025481565b8060028190555050565b60015481565b60008054906101000a900473ffffffffffffffffffffffffffffffffffffffff1681565b600034600160008282546101dc9190610483565b925050819055507f53202f69cfd063dd19653c7d3df13862cc0acfa756ca960c10649e00df4a66e83460405161021291906102de565b60405180910390a16001905090565b60008054906101000a900473ffffffffffffffffffffffffffffffffffffffff1673ffffffffffffffffffffffffffffffffffffffff163373ffffffffffffffffffffffffffffffffffffffff161461027957600080fd5b8073ffffffffffffffffffffffffffffffffffffffff166108fc6001549081150290604051600060405180830381858888f193505050501580156102c1573d6000803e3d6000fd5b5050565b6000819050919050565b6102d8816102c5565b82525050565b60006020820190506102f360008301846102cf565b92915050565b600080fd5b610307816102c5565b811461031257600080fd5b50565b600081359050610324816102fe565b92915050565b6000602082840312156103405761033f6102f9565b5b600061034e84828501610315565b91505092915050565b600073ffffffffffffffffffffffffffffffffffffffff82169050919050565b600061038282610357565b9050919050565b61039281610377565b82525050565b60006020820190506103ad6000830184610389565b92915050565b60008115159050919050565b6103c8816103b3565b82525050565b60006020820190506103e360008301846103bf565b92915050565b60006103f482610357565b9050919050565b610404816103e9565b811461040f57600080fd5b50565b600081359050610421816103fb565b92915050565b60006020828403121561043d5761043c6102f9565b5b600061044b84828501610412565b91505092915050565b7f4e487b7100000000000000000000000000000000000000000000000000000000600052601160045260246000fd5b600061048e826102c5565b9150610499836102c5565b92508282019050808211156104b1576104b0610454565b5b9291505056fea2646970667358221220f5f1cace3ab9b177e4c837eb7642f3a9eee2113e73dd3a8212aa95ef852490c164736f6c63430008110033",
  "linkReferences": {},
  "deployedLinkReferences": {}
}