{
  "contractName": "RockPaperScissors",
  "abi": [
    {
      "anonymous": false,
      "inputs": [
        {
          "indexed": false,
          "internalType": "address",
          "name": "player1",
          "type": "address"
        },
        {
          "indexed": false,
          "internalType": "address",
          "name": "player2",
          "type": "address"
        }
      ],
      "name": "Draw",
      "type": "event"
    },
    {
      "anonymous": false,
      "inputs": [
        {
          "indexed": false,
          "internalType": "address",
          "name": "player",
          "type": "address"
        }
      ],
      "name": "GotRefund",
      "type": "event"
    },
    {
      "anonymous": false,
      "inputs": [
        {
          "indexed": false,
          "internalType": "address",
          "name": "participant",
          "type": "address"
        }
      ],
      "name": "ParticipantAdded",
      "type": "event"
    },
    {
      "anonymous": false,
      "inputs": [
        {
          "indexed": false,
          "internalType": "address",
          "name": "player1",
          "type": "address"
        },
        {
          "indexed": false,
          "internalType": "address",
          "name": "player2",
          "type": "address"
        }
      ],
      "name": "Player1Wins",
      "type": "event"
    },
    {
      "anonymous": false,
      "inputs": [
        {
          "indexed": false,
          "internalType": "address",
          "name": "player1",
          "type": "address"
        },
        {
          "indexed": false,
          "internalType": "address",
          "name": "player2",
          "type": "address"
        }
      ],
      "name": "Player2Wins",
      "type": "event"
    },
    {
      "anonymous": false,
      "inputs": [
        {
          "indexed": false,
          "internalType": "address",
          "name": "player",
          "type": "address"
        }
      ],
      "name": "PlayerRevealedChoice",
      "type": "event"
    },
    {
      "anonymous": false,
      "inputs": [
        {
          "indexed": false,
          "internalType": "address",
          "name": "player1",
          "type": "address"
        },
        {
          "indexed": false,
          "internalType": "address",
          "name": "player2",
          "type": "address"
        },
        {
          "indexed": false,
          "internalType": "uint256",
          "name": "sumOfRefund",
          "type": "uint256"
        }
      ],
      "name": "RefundBothPlayers",
      "type": "event"
    },
    {
      "inputs": [],
      "name": "lastParticipantBlock",
      "outputs": [
        {
          "internalType": "uint256",
          "name": "",
          "type": "uint256"
        }
      ],
      "stateMutability": "view",
      "type": "function",
      "constant": true
    },
    {
      "inputs": [],
      "name": "owner",
      "outputs": [
        {
          "internalType": "address",
          "name": "",
          "type": "address"
        }
      ],
      "stateMutability": "view",
      "type": "function",
      "constant": true
    },
    {
      "inputs": [
        {
          "internalType": "uint256",
          "name": "_fee",
          "type": "uint256"
        }
      ],
      "name": "setFee",
      "outputs": [],
      "stateMutability": "nonpayable",
      "type": "function"
    },
    {
      "inputs": [
        {
          "internalType": "address payable",
          "name": "_to",
          "type": "address"
        }
      ],
      "name": "getFees",
      "outputs": [],
      "stateMutability": "nonpayable",
      "type": "function"
    },
    {
      "inputs": [
        {
          "internalType": "bytes32",
          "name": "choice_hash",
          "type": "bytes32"
        }
      ],
      "name": "participate",
      "outputs": [],
      "stateMutability": "payable",
      "type": "function",
      "payable": true
    },
    {
      "inputs": [
        {
          "internalType": "enum RockPaperScissors.State",
          "name": "choice",
          "type": "uint8"
        },
        {
          "internalType": "uint256",
          "name": "nonce",
          "type": "uint256"
        }
      ],
      "name": "revealChoice",
      "outputs": [],
      "stateMutability": "nonpayable",
      "type": "function"
    },
    {
      "inputs": [],
      "name": "getRefund",
      "outputs": [],
      "stateMutability": "nonpayable",
      "type": "function"
    }
  ],
  "bytecode": "0x6080604052336000806101000a81548173ffffffffffffffffffffffffffffffffffffffff021916908373ffffffffffffffffffffffffffffffffffffffff16021790555060006001556000600260006101000a81548173ffffffffffffffffffffffffffffffffffffffff021916908373ffffffffffffffffffffffffffffffffffffffff1602179055506000600360006101000a81548173ffffffffffffffffffffffffffffffffffffffff021916908373ffffffffffffffffffffffffffffffffffffffff1602179055506000600660006101000a81548160ff0219169083151502179055506000600660016101000a81548160ff0219169083151502179055506000600755600060085560006009556000600a60026101000a81548160ff0219169083151502179055506000600a60036101000a81548160ff02191690831515021790555034801561015457600080fd5b506126ce806101646000396000f3fe6080604052600436106100705760003560e01c806369fe0e2d1161004e57806369fe0e2d146100e55780638da5cb5b1461010e5780639af608c914610139578063b2d5ae441461016257610070565b80630a14504c146100755780630c0b568d146100915780632ab3856d146100ba575b600080fd5b61008f600480360381019061008a919061192e565b610179565b005b34801561009d57600080fd5b506100b860048036038101906100b391906119b6565b61055a565b005b3480156100c657600080fd5b506100cf610a5d565b6040516100dc9190611a05565b60405180910390f35b3480156100f157600080fd5b5061010c60048036038101906101079190611a20565b610a63565b005b34801561011a57600080fd5b50610123610ad1565b6040516101309190611a8e565b60405180910390f35b34801561014557600080fd5b50610160600480360381019061015b9190611ae7565b610af5565b005b34801561016e57600080fd5b50610177610b99565b005b600260009054906101000a900473ffffffffffffffffffffffffffffffffffffffff1673ffffffffffffffffffffffffffffffffffffffff163373ffffffffffffffffffffffffffffffffffffffff16141580156102255750600360009054906101000a900473ffffffffffffffffffffffffffffffffffffffff1673ffffffffffffffffffffffffffffffffffffffff163373ffffffffffffffffffffffffffffffffffffffff1614155b610264576040517f08c379a000000000000000000000000000000000000000000000000000000000815260040161025b90611b97565b60405180910390fd5b60006001541415801561028457504360c86001546102829190611be6565b105b1561029257610291610f3a565b5b6000801b60045414806102a957506000801b600554145b6102e8576040517f08c379a00000000000000000000000000000000000000000000000000000000081526004016102df90611cb2565b60405180910390fd5b6000801b6004540361036357806004819055506001600660006101000a81548160ff02191690831515021790555033600260006101000a81548173ffffffffffffffffffffffffffffffffffffffff021916908373ffffffffffffffffffffffffffffffffffffffff16021790555034600781905550610520565b8060058190555033600360006101000a81548173ffffffffffffffffffffffffffffffffffffffff021916908373ffffffffffffffffffffffffffffffffffffffff16021790555060075434101561046a576000600260009054906101000a900473ffffffffffffffffffffffffffffffffffffffff1673ffffffffffffffffffffffffffffffffffffffff166108fc346007546104019190611cd2565b9081150290604051600060405180830381858888f1935050505090508061045d576040517f08c379a000000000000000000000000000000000000000000000000000000000815260040161045490611d52565b60405180910390fd5b34600781905550506104fd565b6007543411156104fc5760003373ffffffffffffffffffffffffffffffffffffffff166108fc6007543461049e9190611cd2565b9081150290604051600060405180830381858888f193505050509050806104fa576040517f08c379a00000000000000000000000000000000000000000000000000000000081526004016104f190611dbe565b60405180910390fd5b505b5b436001819055506001600660016101000a81548160ff0219169083151502179055505b7f31d3ac54da09405b02d1de0ee0de648de637fbdc111123be0d7fc31f2a544c0b3360405161054f9190611a8e565b60405180910390a150565b81816000801b6004541415801561057657506000801b60055414155b6105b5576040517f08c379a00000000000000000000000000000000000000000000000000000000081526004016105ac90611e50565b60405180910390fd5b600260009054906101000a900473ffffffffffffffffffffffffffffffffffffffff1673ffffffffffffffffffffffffffffffffffffffff163373ffffffffffffffffffffffffffffffffffffffff16148061065e5750600360009054906101000a900473ffffffffffffffffffffffffffffffffffffffff1673ffffffffffffffffffffffffffffffffffffffff163373ffffffffffffffffffffffffffffffffffffffff16145b61069d576040517f08c379a000000000000000000000000000000000000000000000000000000000815260040161069490611ee2565b60405180910390fd5b6000600283836040516020016106b4929190611f79565b6040516020818303038152906040526040516106d09190612013565b602060405180830381855afa1580156106ed573d6000803e3d6000fd5b5050506040513d601f19601f82011682018060405250810190610710919061203f565b9050600260009054906101000a900473ffffffffffffffffffffffffffffffffffffffff1673ffffffffffffffffffffffffffffffffffffffff163373ffffffffffffffffffffffffffffffffffffffff16036108aa57600a60029054906101000a900460ff16156107b7576040517f08c379a00000000000000000000000000000000000000000000000000000000081526004016107ae906120de565b60405180910390fd5b8060045414816040516020016107cd919061210d565b6040516020818303038152906040526004546040516020016107ef919061210d565b60405160208183030381529060405260405160200161080f92919061222d565b6040516020818303038152906040529061085f576040517f08c379a000000000000000000000000000000000000000000000000000000000815260040161085691906122b5565b60405180910390fd5b5082600a60006101000a81548160ff0219169083600281111561088557610884611f02565b5b02179055506001600a60026101000a81548160ff0219169083151502179055506109e9565b600a60039054906101000a900460ff16156108fa576040517f08c379a00000000000000000000000000000000000000000000000000000000081526004016108f1906120de565b60405180910390fd5b806005541481604051602001610910919061210d565b604051602081830303815290604052600554604051602001610932919061210d565b6040516020818303038152906040526040516020016109529291906122fd565b604051602081830303815290604052906109a2576040517f08c379a000000000000000000000000000000000000000000000000000000000815260040161099991906122b5565b60405180910390fd5b5082600a60016101000a81548160ff021916908360028111156109c8576109c7611f02565b5b02179055506001600a60036101000a81548160ff0219169083151502179055505b7f2c89493b7c353d15e89c7e598e13ad853f22e7eb6234f8ed715ae067096ae43433604051610a189190611a8e565b60405180910390a1600a60029054906101000a900460ff168015610a485750600a60039054906101000a900460ff165b15610a5657610a55611106565b5b5050505050565b60015481565b60008054906101000a900473ffffffffffffffffffffffffffffffffffffffff1673ffffffffffffffffffffffffffffffffffffffff163373ffffffffffffffffffffffffffffffffffffffff1614610abb57600080fd5b606481610ac8919061236a565b60098190555050565b60008054906101000a900473ffffffffffffffffffffffffffffffffffffffff1681565b60008054906101000a900473ffffffffffffffffffffffffffffffffffffffff1673ffffffffffffffffffffffffffffffffffffffff163373ffffffffffffffffffffffffffffffffffffffff1614610b4d57600080fd5b8073ffffffffffffffffffffffffffffffffffffffff166108fc6008549081150290604051600060405180830381858888f19350505050158015610b95573d6000803e3d6000fd5b5050565b3373ffffffffffffffffffffffffffffffffffffffff16600260009054906101000a900473ffffffffffffffffffffffffffffffffffffffff1673ffffffffffffffffffffffffffffffffffffffff161480610c4257503373ffffffffffffffffffffffffffffffffffffffff16600360009054906101000a900473ffffffffffffffffffffffffffffffffffffffff1673ffffffffffffffffffffffffffffffffffffffff16145b610c81576040517f08c379a0000000000000000000000000000000000000000000000000000000008152600401610c789061240d565b60405180910390fd5b600660009054906101000a900460ff16610cd0576040517f08c379a0000000000000000000000000000000000000000000000000000000008152600401610cc790612479565b60405180910390fd5b600660019054906101000a900460ff16610d8a57600260009054906101000a900473ffffffffffffffffffffffffffffffffffffffff1673ffffffffffffffffffffffffffffffffffffffff163373ffffffffffffffffffffffffffffffffffffffff1614610d74576040517f08c379a0000000000000000000000000000000000000000000000000000000008152600401610d6b906124e5565b60405180910390fd5b610d7d33611357565b610d856113e2565b610f38565b600060015414158015610daa57504360c8600154610da89190611be6565b105b15610f3757600a60029054906101000a900460ff16158015610dd95750600a60039054906101000a900460ff16155b15610deb57610de66114f8565b610f36565b600a60029054906101000a900460ff16610e9c57600260009054906101000a900473ffffffffffffffffffffffffffffffffffffffff1673ffffffffffffffffffffffffffffffffffffffff163373ffffffffffffffffffffffffffffffffffffffff1614610e8f576040517f08c379a0000000000000000000000000000000000000000000000000000000008152600401610e8690612577565b60405180910390fd5b610e9761165d565b610f35565b600260009054906101000a900473ffffffffffffffffffffffffffffffffffffffff1673ffffffffffffffffffffffffffffffffffffffff163373ffffffffffffffffffffffffffffffffffffffff1614610f2c576040517f08c379a0000000000000000000000000000000000000000000000000000000008152600401610f2390612577565b60405180910390fd5b610f346117a8565b5b5b5b5b565b6000600754146110fc57600a60029054906101000a900460ff16158015610f6e5750600a60039054906101000a900460ff16155b156110cf57600260009054906101000a900473ffffffffffffffffffffffffffffffffffffffff1673ffffffffffffffffffffffffffffffffffffffff166108fc6007549081150290604051600060405180830381858888f19350505050158015610fdd573d6000803e3d6000fd5b50600360009054906101000a900473ffffffffffffffffffffffffffffffffffffffff1673ffffffffffffffffffffffffffffffffffffffff166108fc6007549081150290604051600060405180830381858888f19350505050158015611048573d6000803e3d6000fd5b507fbec40ece77d5c0cd4d077be856076c0835ca0128f976f5ea6d914a978d61b43d600260009054906101000a900473ffffffffffffffffffffffffffffffffffffffff16600360009054906101000a900473ffffffffffffffffffffffffffffffffffffffff166007546040516110c2939291906125f6565b60405180910390a16110fb565b600a60029054906101000a900460ff16156110f1576110ec6117a8565b6110fa565b6110f961165d565b5b5b5b6111046113e2565b565b6000600281111561111a57611119611f02565b5b600a60009054906101000a900460ff16600281111561113c5761113b611f02565b5b036111e0576000600281111561115557611154611f02565b5b600a60019054906101000a900460ff16600281111561117757611176611f02565b5b03611189576111846114f8565b6111db565b6001600281111561119d5761119c611f02565b5b600a60019054906101000a900460ff1660028111156111bf576111be611f02565b5b036111d1576111cc61165d565b6111da565b6111d96117a8565b5b5b611355565b600160028111156111f4576111f3611f02565b5b600a60009054906101000a900460ff16600281111561121657611215611f02565b5b036112ba576001600281111561122f5761122e611f02565b5b600a60019054906101000a900460ff16600281111561125157611250611f02565b5b036112635761125e6114f8565b6112b5565b6000600281111561127757611276611f02565b5b600a60019054906101000a900460ff16600281111561129957611298611f02565b5b036112ab576112a66117a8565b6112b4565b6112b361165d565b5b5b611354565b6002808111156112cd576112cc611f02565b5b600a60019054906101000a900460ff1660028111156112ef576112ee611f02565b5b03611301576112fc6114f8565b611353565b6001600281111561131557611314611f02565b5b600a60019054906101000a900460ff16600281111561133757611336611f02565b5b03611349576113446117a8565b611352565b61135161165d565b5b5b5b5b565b8073ffffffffffffffffffffffffffffffffffffffff166108fc6007549081150290604051600060405180830381858888f1935050505015801561139f573d6000803e3d6000fd5b506113a86113e2565b7f7bf692b80b238c57b0954361f9f866626ca9166a4659dd2c54f2117333e24bab336040516113d79190611a8e565b60405180910390a150565b60006001819055506000801b6004819055506000801b6005819055506000600a60026101000a81548160ff0219169083151502179055506000600a60036101000a81548160ff02191690831515021790555060006007819055506000600660006101000a81548160ff0219169083151502179055506000600660016101000a81548160ff0219169083151502179055506000600260006101000a81548173ffffffffffffffffffffffffffffffffffffffff021916908373ffffffffffffffffffffffffffffffffffffffff1602179055506000600360006101000a81548173ffffffffffffffffffffffffffffffffffffffff021916908373ffffffffffffffffffffffffffffffffffffffff160217905550565b600260009054906101000a900473ffffffffffffffffffffffffffffffffffffffff1673ffffffffffffffffffffffffffffffffffffffff166108fc6007549081150290604051600060405180830381858888f19350505050158015611562573d6000803e3d6000fd5b50600360009054906101000a900473ffffffffffffffffffffffffffffffffffffffff1673ffffffffffffffffffffffffffffffffffffffff166108fc6007549081150290604051600060405180830381858888f193505050501580156115cd573d6000803e3d6000fd5b5060006007819055507ff9a3a60cb724d07755d2834db8d01b03c0b89fd7f9ed1ac76c180681c383af9d600260009054906101000a900473ffffffffffffffffffffffffffffffffffffffff16600360009054906101000a900473ffffffffffffffffffffffffffffffffffffffff1660405161164b92919061262d565b60405180910390a161165b6113e2565b565b600060095460075460026116719190612656565b61167b9190612656565b9050600360009054906101000a900473ffffffffffffffffffffffffffffffffffffffff1673ffffffffffffffffffffffffffffffffffffffff166108fc8260075460026116c99190612656565b6116d39190611cd2565b9081150290604051600060405180830381858888f193505050501580156116fe573d6000803e3d6000fd5b5080600860008282546117119190611be6565b9250508190555060006007819055507f7dd62fe143e63aa112c4dba42b4e4657df36469cb76f085a4100add3cf9521b4600260009054906101000a900473ffffffffffffffffffffffffffffffffffffffff16600360009054906101000a900473ffffffffffffffffffffffffffffffffffffffff1660405161179592919061262d565b60405180910390a16117a56113e2565b50565b600060095460075460026117bc9190612656565b6117c69190612656565b9050600260009054906101000a900473ffffffffffffffffffffffffffffffffffffffff1673ffffffffffffffffffffffffffffffffffffffff166108fc8260075460026118149190612656565b61181e9190611cd2565b9081150290604051600060405180830381858888f19350505050158015611849573d6000803e3d6000fd5b50806008600082825461185c9190611be6565b9250508190555060006007819055507fd86b99b026345d2db61963bfeb9caad50609d60a29d26b9f7d80c64d350739d8600260009054906101000a900473ffffffffffffffffffffffffffffffffffffffff16600360009054906101000a900473ffffffffffffffffffffffffffffffffffffffff166040516118e092919061262d565b60405180910390a16118f06113e2565b50565b600080fd5b6000819050919050565b61190b816118f8565b811461191657600080fd5b50565b60008135905061192881611902565b92915050565b600060208284031215611944576119436118f3565b5b600061195284828501611919565b91505092915050565b6003811061196857600080fd5b50565b60008135905061197a8161195b565b92915050565b6000819050919050565b61199381611980565b811461199e57600080fd5b50565b6000813590506119b08161198a565b92915050565b600080604083850312156119cd576119cc6118f3565b5b60006119db8582860161196b565b92505060206119ec858286016119a1565b9150509250929050565b6119ff81611980565b82525050565b6000602082019050611a1a60008301846119f6565b92915050565b600060208284031215611a3657611a356118f3565b5b6000611a44848285016119a1565b91505092915050565b600073ffffffffffffffffffffffffffffffffffffffff82169050919050565b6000611a7882611a4d565b9050919050565b611a8881611a6d565b82525050565b6000602082019050611aa36000830184611a7f565b92915050565b6000611ab482611a4d565b9050919050565b611ac481611aa9565b8114611acf57600080fd5b50565b600081359050611ae181611abb565b92915050565b600060208284031215611afd57611afc6118f3565b5b6000611b0b84828501611ad2565b91505092915050565b600082825260208201905092915050565b7f596f752063616e277420706172746963697061746520666f722074776f20706c60008201527f6179657273210000000000000000000000000000000000000000000000000000602082015250565b6000611b81602683611b14565b9150611b8c82611b25565b604082019050919050565b60006020820190508181036000830152611bb081611b74565b9050919050565b7f4e487b7100000000000000000000000000000000000000000000000000000000600052601160045260246000fd5b6000611bf182611980565b9150611bfc83611980565b9250828201905080821115611c1457611c13611bb7565b5b92915050565b7f5468657265206172652074776f20706c6179657273207061727469636970617460008201527f696e6720696e20736d61727420636f6e747261637420616c72656164792e205460208201527f7279206c617465722e0000000000000000000000000000000000000000000000604082015250565b6000611c9c604983611b14565b9150611ca782611c1a565b606082019050919050565b60006020820190508181036000830152611ccb81611c8f565b9050919050565b6000611cdd82611980565b9150611ce883611980565b9250828203905081811115611d0057611cff611bb7565b5b92915050565b7f4572726f7220696e20726566756e6420746f20706c6179657231000000000000600082015250565b6000611d3c601a83611b14565b9150611d4782611d06565b602082019050919050565b60006020820190508181036000830152611d6b81611d2f565b9050919050565b7f4572726f7220696e20726566756e6420746f20706c6179657232000000000000600082015250565b6000611da8601a83611b14565b9150611db382611d72565b602082019050919050565b60006020820190508181036000830152611dd781611d9b565b9050919050565b7f4e6565642074776f20706c617965727320696e2067616d6520746f207265766560008201527f616c2063686f6963650000000000000000000000000000000000000000000000602082015250565b6000611e3a602983611b14565b9150611e4582611dde565b604082019050919050565b60006020820190508181036000830152611e6981611e2d565b9050919050565b7f596f7520646f6e277420706172746963697061746520696e2063757272656e7460008201527f2067616d65000000000000000000000000000000000000000000000000000000602082015250565b6000611ecc602583611b14565b9150611ed782611e70565b604082019050919050565b60006020820190508181036000830152611efb81611ebf565b9050919050565b7f4e487b7100000000000000000000000000000000000000000000000000000000600052602160045260246000fd5b60038110611f4257611f41611f02565b5b50565b6000819050611f5382611f31565b919050565b6000611f6382611f45565b9050919050565b611f7381611f58565b82525050565b6000604082019050611f8e6000830185611f6a565b611f9b60208301846119f6565b9392505050565b600081519050919050565b600081905092915050565b60005b83811015611fd6578082015181840152602081019050611fbb565b60008484015250505050565b6000611fed82611fa2565b611ff78185611fad565b9350612007818560208601611fb8565b80840191505092915050565b600061201f8284611fe2565b915081905092915050565b60008151905061203981611902565b92915050565b600060208284031215612055576120546118f3565b5b60006120638482850161202a565b91505092915050565b7f596f7527766520616c72656164792072657665616c656420796f75722063686f60008201527f6963652e00000000000000000000000000000000000000000000000000000000602082015250565b60006120c8602483611b14565b91506120d38261206c565b604082019050919050565b600060208201905081810360008301526120f7816120bb565b9050919050565b612107816118f8565b82525050565b600060208201905061212260008301846120fe565b92915050565b600081905092915050565b7f486173686573206973206e6f7420657175616c2e20596f75722063686f69636560008201527f206861736e2774206265656e2072657665616c65642e2063757272656e745f6860208201527f617368203d200000000000000000000000000000000000000000000000000000604082015250565b60006121b5604683612128565b91506121c082612133565b604682019050919050565b600081519050919050565b60006121e1826121cb565b6121eb8185612128565b93506121fb818560208601611fb8565b80840191505092915050565b7f706c61796572315f63686f6963655f6861736800000000000000000000000000815250565b6000612238826121a8565b915061224482856121d6565b915061224f82612207565b60138201915061225f82846121d6565b91508190509392505050565b6000601f19601f8301169050919050565b6000612287826121cb565b6122918185611b14565b93506122a1818560208601611fb8565b6122aa8161226b565b840191505092915050565b600060208201905081810360008301526122cf818461227c565b905092915050565b7f706c61796572325f63686f6963655f6861736800000000000000000000000000815250565b6000612308826121a8565b915061231482856121d6565b915061231f826122d7565b60138201915061232f82846121d6565b91508190509392505050565b7f4e487b7100000000000000000000000000000000000000000000000000000000600052601260045260246000fd5b600061237582611980565b915061238083611980565b9250826123905761238f61233b565b5b828204905092915050565b7f596f7520646f6e277420706172746963697061746520696e207468697320676160008201527f6d652e0000000000000000000000000000000000000000000000000000000000602082015250565b60006123f7602383611b14565b91506124028261239b565b604082019050919050565b60006020820190508181036000830152612426816123ea565b9050919050565b7f47616d65206861736e2774207374617274656400000000000000000000000000600082015250565b6000612463601383611b14565b915061246e8261242d565b602082019050919050565b6000602082019050818103600083015261249281612456565b9050919050565b7f4f6e6c79207061727469636970616e742063616e2067657420726566756e6400600082015250565b60006124cf601f83611b14565b91506124da82612499565b602082019050919050565b600060208201905081810360008301526124fe816124c2565b9050919050565b7f4f6e6c79207061727469636970616e742063616e206765742077696e6e65727360008201527f206d6f6e65790000000000000000000000000000000000000000000000000000602082015250565b6000612561602683611b14565b915061256c82612505565b604082019050919050565b6000602082019050818103600083015261259081612554565b9050919050565b6000819050919050565b60006125bc6125b76125b284611a4d565b612597565b611a4d565b9050919050565b60006125ce826125a1565b9050919050565b60006125e0826125c3565b9050919050565b6125f0816125d5565b82525050565b600060608201905061260b60008301866125e7565b61261860208301856125e7565b61262560408301846119f6565b949350505050565b600060408201905061264260008301856125e7565b61264f60208301846125e7565b9392505050565b600061266182611980565b915061266c83611980565b925082820261267a81611980565b9150828204841483151761269157612690611bb7565b5b509291505056fea2646970667358221220a7eedd7fd2ab8d5f9535dbe0f4aebd57ef50005da5c34c9b619139e94d9d0a1664736f6c63430008110033",
  "immutableReferences": {},
  "source": "// SPDX-License-Identifier: GPL-3.0-or-later\npragma solidity ^0.8.5;\n\n\ncontract RockPaperScissors {\n\t\n\taddress public owner = msg.sender;\n\n\tuint256 public lastParticipantBlock = 0;\n\n\taddress payable player1 = payable(address(0));\n\taddress payable player2 = payable(address(0));\n\n\tbytes32 player1_choice_hash;\n\tbytes32 player2_choice_hash;\n\n\tbool player1_submitted_hash = false;\n\tbool player2_submitted_hash = false;\n\n\tuint256 gamePrice = 0;\n\tuint256 contractsMoneyFromFees = 0;\n\n\tuint256 fee = 0;\n\n\tenum State {\n\t\tRock,\n\t\tPaper,\n\t\tScissors\n\t}\n\n\tState player1_revealed_choice;\n\tState player2_revealed_choice;\n\n\tbool player1_revealed = false;\n\tbool player2_revealed = false;\n\n\tmodifier OnlyOwner {\n\t\trequire(msg.sender == owner);\n\t\t_;\n\t}\n\n\tfunction setFee(uint256 _fee) public OnlyOwner {\n\t\tfee = _fee / 100.0;\n\t}\n\n\tfunction getFees(address payable _to) public OnlyOwner {\n\t\t_to.transfer(contractsMoneyFromFees);\n\t}\n\t\n\tmodifier CanAddParticipant {\n\t\trequire(msg.sender != player1 && msg.sender != player2, \"You can't participate for two players!\");\n\t\tif (lastParticipantBlock != 0 && lastParticipantBlock + 200 < block.number) {\n\t\t\tendGame();\n\t\t}\n\t\trequire(\n\t\t\tplayer1_choice_hash == 0 || player2_choice_hash == 0,\n\t\t\t\"There are two players participating in smart contract already. Try later.\"\n\t\t);\n\t\t_;\n\t}\n\n\tevent ParticipantAdded(address participant);\n\n\tfunction participate(bytes32 choice_hash) public payable CanAddParticipant {\n\t\tif (player1_choice_hash == 0) {\n\t\t\tplayer1_choice_hash = choice_hash;\n\t\t\tplayer1_submitted_hash = true;\n\t\t\tplayer1 = payable(msg.sender);\n\t\t\tgamePrice = msg.value;\n\t\t} else {\n\t\t\tplayer2_choice_hash = choice_hash;\n\t\t\tplayer2 = payable(msg.sender);\n\t\t\tif (msg.value < gamePrice) {\n\t\t\t\tbool status = player1.send(gamePrice - msg.value);\n\t\t\t\trequire(status, \"Error in refund to player1\");\n\t\t\t\tgamePrice = msg.value;\n\t\t\t} else if(msg.value > gamePrice) {\n\t\t\t\tbool status = payable(msg.sender).send(msg.value - gamePrice);\n\t\t\t\trequire(status, \"Error in refund to player2\");\n\t\t\t}\n\t\t\tlastParticipantBlock = block.number;\n\t\t\tplayer2_submitted_hash = true;\n\t\t}\n\n\t\temit ParticipantAdded(msg.sender);\n\t}\n\n\t/*\n\tFor debug\n\tfunction getAbiEncode(State choice, uint256 nonce) public pure returns (bytes memory) {\n\t\treturn abi.encode(choice, nonce);\n\t}\n\n\tfunction getSha256(bytes memory abiEncoded) public pure returns (bytes32) {\n\t\treturn sha256(abiEncoded);\n\t}\n\n\tfunction allTogether(State choice, uint256 nonce) public pure returns (bytes32) {\n\t\treturn sha256(abi.encode(choice, nonce));\n\t}\n\t*/\n\n\tmodifier ValidChoiceReveal(State choice, uint256 nonce) {\n\t\trequire(player1_choice_hash != 0 && player2_choice_hash != 0, \"Need two players in game to reveal choice\");\n\t\trequire(msg.sender == player1 || msg.sender == player2, \"You don't participate in current game\");\n\t\tbytes32 current_hash = sha256(abi.encode(choice, nonce));\n\t\tif (msg.sender == player1) {\n\t\t\trequire(!player1_revealed, \"You've already revealed your choice.\");\n\t\t\trequire(player1_choice_hash == current_hash, string.concat(\"Hashes is not equal. Your choice hasn't been revealed. current_hash = \", string(abi.encode(current_hash)), \"player1_choice_hash\", string(abi.encode(player1_choice_hash))));\n\t\t\tplayer1_revealed_choice = choice;\n\t\t\tplayer1_revealed = true;\n\t\t} else {\n\t\t\trequire(!player2_revealed, \"You've already revealed your choice.\");\n\t\t\trequire(player2_choice_hash == current_hash, string.concat(\"Hashes is not equal. Your choice hasn't been revealed. current_hash = \", string(abi.encode(current_hash)), \"player2_choice_hash\", string(abi.encode(player2_choice_hash))));\n\t\t\tplayer2_revealed_choice = choice;\n\t\t\tplayer2_revealed = true;\n\t\t}\n\t\t_;\n\t}\n\n\tevent PlayerRevealedChoice(address player);\n\n\tfunction revealChoice(State choice, uint256 nonce) public ValidChoiceReveal(choice, nonce) {\n\t\temit PlayerRevealedChoice(msg.sender);\n\t\tif (player1_revealed && player2_revealed) {\n\t\t\tgetWinner();\n\t\t}\n\t}\n\n\tevent Draw(address player1, address player2);\n\n\tfunction drawFunc() private {\n\t\tplayer1.transfer(gamePrice);\n\t\tplayer2.transfer(gamePrice);\n\t\tgamePrice = 0;\n\t\temit Draw(player1, player2);\n\t\tmakeFieldsEmpty();\n\t}\n\n\tevent Player1Wins(address player1, address player2);\n\n\tfunction player1WinsFunc() private {\n\t\tuint256 feeForSmartContract = 2 * gamePrice * fee;\n\t\tplayer1.transfer(2 * gamePrice - feeForSmartContract);\n\t\tcontractsMoneyFromFees += feeForSmartContract;\n\t\tgamePrice = 0;\n\t\temit Player1Wins(player1, player2);\n\t\tmakeFieldsEmpty();\n\t}\n\n\tevent Player2Wins(address player1, address player2);\n\n\tfunction player2WinsFunc() private {\n\t\tuint256 feeForSmartContract = 2 * gamePrice * fee;\n\t\tplayer2.transfer(2 * gamePrice - feeForSmartContract);\n\t\tcontractsMoneyFromFees += feeForSmartContract;\n\t\tgamePrice = 0;\n\t\temit Player2Wins(player1, player2);\n\t\tmakeFieldsEmpty();\n\t}\n\n\tfunction getWinner() private {\n\t\tif (player1_revealed_choice == State.Rock) {\n\t\t\tif (player2_revealed_choice == State.Rock) {\n\t\t\t\tdrawFunc();\n\t\t\t} else if (player2_revealed_choice == State.Paper) {\n\t\t\t\tplayer2WinsFunc();\n\t\t\t} else {\n\t\t\t\tplayer1WinsFunc();\n\t\t\t}\n\t\t} else if (player1_revealed_choice == State.Paper) {\n\t\t\tif (player2_revealed_choice == State.Paper) {\n\t\t\t\tdrawFunc();\n\t\t\t} else if (player2_revealed_choice == State.Rock) {\n\t\t\t\tplayer1WinsFunc();\n\t\t\t} else {\n\t\t\t\tplayer2WinsFunc();\n\t\t\t}\n\t\t} else {\n\t\t\tif (player2_revealed_choice == State.Scissors) {\n\t\t\t\tdrawFunc();\n\t\t\t} else if (player2_revealed_choice == State.Paper) {\n\t\t\t\tplayer1WinsFunc();\n\t\t\t} else {\n\t\t\t\tplayer2WinsFunc();\n\t\t\t}\n\t\t}\n\t}\n\n\tevent GotRefund(address player);\n\n\tfunction makeRefund(address accountForRefund) private {\n\t\tpayable(accountForRefund).transfer(gamePrice);\n\t\tmakeFieldsEmpty();\n\t\temit GotRefund(msg.sender);\n\t}\n\n\tmodifier CanGetRefund {\n\t\trequire(player1 == msg.sender || player2 == msg.sender, \"You don't participate in this game.\");\n\t\trequire(player1_submitted_hash, \"Game hasn't started\");\n\t\t_;\n\t}\n\n    function getRefund() public CanGetRefund{\n\t\tif (!player2_submitted_hash) {\n\t\t\trequire(msg.sender == player1, \"Only participant can get refund\");\n\t\t\tmakeRefund(msg.sender);\n\t\t\tmakeFieldsEmpty();\n\t\t} else if (lastParticipantBlock != 0 && lastParticipantBlock + 200 < block.number) {\n\t\t\tif (!player1_revealed && !player2_revealed) {\n\t\t\t\tdrawFunc();\n\t\t\t} else if (!player1_revealed) {\n\t\t\t\trequire(msg.sender == player1, \"Only participant can get winners money\");\n\t\t\t\tplayer2WinsFunc();\n\t\t\t} else {\n\t\t\t\trequire(msg.sender == player1, \"Only participant can get winners money\");\n\t\t\t\tplayer1WinsFunc();\n\t\t\t}\n\t\t}\n\t}\n\n\tevent RefundBothPlayers(address player1, address player2, uint256 sumOfRefund);\n\n\tfunction makeFieldsEmpty() private {\n\t\tlastParticipantBlock = 0;\n\t\tplayer1_choice_hash = 0;\n\t\tplayer2_choice_hash = 0;\n\t\tplayer1_revealed = false;\n\t\tplayer2_revealed = false;\n\t\tgamePrice = 0;\n\t\tplayer1_submitted_hash = false;\n\t\tplayer2_submitted_hash = false;\n\t\tplayer1 = payable(address(0));\n\t\tplayer2 = payable(address(0));\n\t}\n\n\tfunction endGame() private {\n\t\tif (gamePrice != 0) {\n\t\t\tif (!player1_revealed && !player2_revealed) {\n\t\t\t\tplayer1.transfer(gamePrice);\n\t\t\t\tplayer2.transfer(gamePrice);\n\t\t\t\temit RefundBothPlayers(player1, player2, gamePrice);\n\t\t\t} else if(player1_revealed) {\n\t\t\t\tplayer1WinsFunc();\n\t\t\t} else {\n\t\t\t\tplayer2WinsFunc();\n\t\t\t}\n\t\t}\n\n\t\tmakeFieldsEmpty();\n\t}\n}\n",
  "sourcePath": "/Users/denis/Documents/HSE/Programming for Blockchain/Homeworks/hw7_truffle/contracts/RockPaperScissors.sol",
  "compiler": {
    "name": "solc",
    "version": "0.8.17+commit.8df45f5f.Emscripten.clang"
  },
  "schemaVersion": "3.4.11",
  "updatedAt": "2022-12-05T03:58:07.990Z",
  "networkType": "ethereum",
  "devdoc": {
    "kind": "dev",
    "methods": {},
    "version": 1
  },
  "userdoc": {
    "kind": "user",
    "methods": {},
    "version": 1
  }
}